:020000040000FA
:100000000A128A11DB2F00300A168A1541210A12C2
:100010008A1101300A168A1541210A128A11080034
:1000200000307005F80000307105F900803072056D
:10003000FA007F307305FB007B087A0479047804AA
:10004000031D232824282C280030F3000030F20060
:100050000030F1000030F00000307405F80000308E
:100060007505F90080307605FA007F307705FB00D2
:100070007B087A0479047804031D3F284028482827
:100080000030F7000030F6000030F5000030F400DA
:10009000F31F4B284C2870280030F8000030F9007E
:1000A0000030FA008030FB007008F8027108031C71
:1000B000710F5B285C28F9027208031C720F61281B
:1000C0006228FA027308031C730F67286828FB0272
:1000D0007B08F3007A08F2007908F1007808F00054
:1000E000F71F7328742898280030F8000030F900B2
:1000F0000030FA008030FB007408F8027508031C19
:10010000750F83288428F9027608031C760F892846
:100110008A28FA027708031C770F8F289028FB02A1
:100120007B08F7007A08F6007908F5007808F400F3
:100130008030F3068030F70677087302031DAA2883
:1001400076087202031DAA2875087102031DAA28E9
:10015000740870020318AD28AE28B0280310B12827
:10016000031408008312031336088039BB003B08D0
:10017000C0003608BB003B07BC003C08C600B51FEA
:10018000C228C328C428461446080319C828C92809
:10019000D828460A031DCD28CE28D6280030B60020
:1001A0000030B5000030B4000030B300B517E028CF
:1001B0000030B6000030B5000030B4000030B300AD
:1001C0003A088039BB003B08C0063A08BB003B0731
:1001D000BC003C08C100B91FEE28EF28F0284114EC
:1001E00041080319F428F5280429410A031DF928B8
:1001F000FA2802290030BA000030B9000030B800F7
:100200000030B700B9170C290030BA000030B9002F
:100210000030B8000030B700410803191029112937
:1002200016294608031D152916291F290030B60076
:100230000030B5000030B4000030B300122C330899
:10024000BB003B08F00039080A168A15E9210A129A
:100250008A11710883120313CC007008CB004B087D
:10026000BB00BC01BD01BE013E08C5003D08C40085
:100270003C08C3003B08C2004C08BB00BC01BD01E8
:10028000BE013E08CA003D08C9003C08C8003B0842
:10029000C7003408BB003B08F00038080A168A156E
:1002A000E9210A128A11710883120313CC00700825
:1002B000CB004B08BB00BC01BD01BE013B08C2071F
:1002C0003C0803110318013E03196729C3073D08C1
:1002D00003110318013E03196E29C4073E080311D8
:1002E0000318013E03197529C5074C08BB00BC0162
:1002F000BD01BE013B08C7073C0803110318013EBE
:1003000003198329C8073D0803110318013E031987
:100310008A29C9073E0803110318013E03199129D0
:10032000CA073508BB003B08F00037080A168A15D3
:10033000E9210A128A11710883120313CC00700894
:10034000CB004B08BB00BC01BD01BE013B08C2078E
:100350003C0803110318013E0319AF29C3073D08E8
:1003600003110318013E0319B629C4073E080311FF
:100370000318013E0319BD29C5074C08BB00BC0189
:10038000BD01BE013B08C7073C0803110318013E2D
:100390000319CB29C8073D0803110318013E0319AF
:1003A000D229C9073E0803110318013E0319D929B0
:1003B000CA070830BB000310C20DC30DC40DC50D24
:1003C000BB0BDB293408BB003B08F00037080A16DA
:1003D0008A15E9210A128A11710883120313CC00CD
:1003E0007008CB004B08BB004C08BC00BD01BE012F
:1003F0003B08C2073C0803110318013E0319012AF8
:10040000C3073D0803110318013E0319082AC40756
:100410003E0803110318013E03190F2AC5073308CC
:10042000BB003B08F00038080A168A15E9210A12B9
:100430008A11710883120313CC007008CB004B089B
:10044000BB004C08BC00BD01BE013B08C2073C0814
:1004500003110318013E03192E2AC3073D08031197
:100460000318013E0319352AC4073E080311031877
:10047000013E03193C2AC5070830BB000310C20D1A
:10048000C30DC40DC50DBB0B3E2A3308BB003B0892
:10049000F00037080A168A15E9210A128A11710834
:1004A00083120313CC007008CB004B08BB004C0830
:1004B000BC00BD01BE013B08C2073C080311031884
:1004C000013E0319642AC3073D0803110318013EC6
:1004D00003196B2AC4073E0803110318013E0319D0
:1004E000722AC5073408BB003B08F00039080A1619
:1004F0008A15E9210A128A11710883120313CC00AC
:100500007008CB004B08BB004C08BC00BD01BE010D
:100510003B08C7073C0803110318013E0319912A41
:10052000C8073D0803110318013E0319982AC9079B
:100530003E0803110318013E03199F2ACA07350814
:10054000BB003B08F00038080A168A15E9210A1298
:100550008A11710883120313CC007008CB004B087A
:10056000BB004C08BC00BD01BE013B08C7073C08EE
:1005700003110318013E0319BE2AC8073D080311E1
:100580000318013E0319C52AC9073E0803110318C1
:10059000013E0319CC2ACA073508BB003B08F0000E
:1005A00039080A168A15E9210A128A11710883127C
:1005B0000313CC007008CB004B08BB004C08BC00F8
:1005C000BD01BE0108300310BB0DBC0DBD0DBE0D3D
:1005D000FF3E031DE32A3B08C7073C08031103182D
:1005E000013E0319F42AC8073D0803110318013E10
:1005F0000319FB2AC9073E0803110318013E03191A
:10060000022BCA074208BB004308BC004408BD00D7
:100610004508BE0018300310BE0CBD0CBC0CBB0C52
:10062000FF3E031D0B2B3B08C7073C0803110318B3
:10063000013E03191C2BC8073D0803110318013E96
:100640000319232BC9073E0803110318013E0319A0
:100650002A2BCA070830BB000310C20DC30DC40DFE
:10066000C50DBB0B2C2B46084107BB00BC01BC0DC4
:100670003B08823ECB003C080318013EFF3ECC0005
:100680005E2B0130BB000310C70DC80DC90DCA0D8C
:10069000BB0B432BC51F4D2B4E2B4F2B471401304B
:1006A000BB000310C20DC30DC40DC50DBB0B512BF8
:1006B000FF30CB070318CC0AFF30CC07C91F612BD2
:1006C000622B412BC101C51F662B672B832BFF308B
:1006D0004205BB00FF304305BC00FF304405BD00B0
:1006E0007F304505BE003E083D043C043B04031931
:1006F0007A2B7B2B7E2BC101C10A832B471C812BBC
:10070000822B832B7B2B41080319872B882BB92B3A
:100710000130C707003003180130C8070030031844
:100720000130C907003003180130CA074A1C992B51
:100730009A2BB92B4708BB004808BC004908BD00EC
:100740004A08BE000130BF003E0DBE0CBD0CBC0C03
:10075000BB0CBF0BA42B3E08CA003D08C9003C08D7
:10076000C8003B08C7000130CB070318CC0A003093
:10077000CC074C08803AFF0080307F02031DC22B5B
:10078000FF304B02031CC52BC62BD12B7F308312AD
:100790000313CA008030C9000030C8000030C70011
:1007A000062C831203134C08803AFF0080307F022E
:1007B000031DDC2B01304B020318DF2BE02BEC2B4D
:1007C000003083120313CA000030C9000030C80093
:1007D0000030C700C001062C831203134B08BB0076
:1007E0003B08C600FF30C705FF30C8057F30C9058C
:1007F0000030CA05461CFD2BFE2BFF2BC9174608EF
:10080000BB0003103B0CBC003C08CA004008BB0006
:100810003B08CA044A08B6004908B5004808B400B5
:100820004708B30008008312031389018801870178
:100830008601850183160313880185018601F03046
:1008400087000A168A1561240A128A110D30831650
:100850000313EB00AF30EA00B530E900E90B2E2CB2
:10086000EA0B2E2CEB0B2E2C352C0A128A110320AE
:100870000A128A11C9300A168A15A3210A128A118E
:10088000143083160313EB000730EA001130E9003F
:10089000E90B482CEA0B482CEB0B482CF301F30A2C
:1008A00001300A168A1559230A128A11B2300A1623
:1008B0008A15A3210A128A110A3083160313E9004C
:1008C0006908F30001300A168A1559230A128A11A1
:1008D00006300A168A1551210A128A11013A0319A3
:1008E000722C732C902C83160313EC010930E90051
:1008F0006C08993E84006908831780000130E90084
:100900006908EC076C08803A7A3E031C882C892C15
:10091000762CF70199300A168A15CE220A128A110E
:100920000A128A1502230A128A1183160313E90098
:100930006908EE0006306D0203189F2CA02CBD2C18
:100940008316031712030319A62CA72CBD2C83169C
:1009500003136E08E9006D08993E84006908831747
:1009600080006E080A168A1550250A128A11013075
:1009700083160313E9006908ED07103003136E06B0
:10098000031DC32CC42CD52D831603171203031D7E
:10099000CA2CCB2CD52D0A128A1103200A128A11D7
:1009A000F301F30A02300A168A1559230A128A1132
:1009B00090300A168A15A3210A128A11F301F30A4C
:1009C00001300A168A1559230A128A11AE300A1606
:1009D0008A15A3210A128A110E3083160313E90027
:1009E000690883160317A0009F019F0A2C2D113060
:1009F000831603172002031CFE2CFF2C0E2D0A3039
:100A000083160313E9006908F3000030F400F500D1
:100A100001300A168A15D4250A128A110A128A157B
:100A200002230A128A1183160313E9006908EE00F3
:100A30006E08E9006D08993E8400690883178000FC
:100A40006E080A168A1550250A128A11013083167B
:100A50000313E9006908ED07063003136D02031C58
:100A6000322D332DF72CED010F30E9006908F3002A
:100A700002300A168A1559230A128A110F3083167A
:100A80000313E900690883160317A00002308316D8
:100A90000313E9006908831603179F0009308316C2
:100AA0000313E9006908F3000130F4000030F50099
:100AB00000300A168A15D4250A128A11942D113095
:100AC000831603172002031C662D672D762D0A302E
:100AD00083160313E9006908F3000030F400F50001
:100AE00001300A168A15D4250A128A110A128A15AB
:100AF00002230A128A1183160313E9006908EE0023
:100B00006E08E9006D08933E840069088317800031
:100B10006E080A168A1550250A128A1101308316AA
:100B20000313E9006908ED070630831603136D020D
:100B3000031C9B2D9C2D5F2DF70199300A168A15F9
:100B4000CE220A128A11073083160313E9006908BE
:100B5000F70093300A168A15CE220A128A11F30181
:100B6000F30A01300A168A1559230A128A110A1249
:100B70008A1103200A128A116D300A168A15A321E0
:100B80000A128A11033083160313EB008A30EA003D
:100B90005530E900E90BCA2DEA0BCA2DEB0BCA2D23
:100BA0000A168A159A220A128A110630831603132E
:100BB0006D06031DDC2DDD2D902CF10199300A16F8
:100BC0008A1569220A128A11003A0319E82DE92DC3
:100BD000202E83160313ED018312031306148316CC
:100BE00003179201920AF301F30A01300A168A15DB
:100BF00059230A128A117F300A168A15A3210A1274
:100C00008A11F301F30A02300A168A1559230A12CF
:100C10008A114D300A168A15A3210A128A11093049
:100C200083160313E9006908F3001030F400003064
:100C3000F50001300A168A15D4250A128A11902C63
:100C40000430831603171206031D272E282EB72FF4
:100C5000F301F30A01300A168A1559230A128A1180
:100C6000BC300A168A15A3210A128A11F301F30A6D
:100C700002300A168A1559230A128A1190300A1670
:100C80008A15A3210A128A1183160313ED010F306E
:100C9000E9006908F30002300A168A1559230A127E
:100CA0008A110F3083160313E900690883160317AE
:100CB000A000023083160313E900690883160317A6
:100CC0009F00972E1130831603172002031C692EF4
:100CD0006A2E792E0A3083160313E9006908F3009F
:100CE0000030F400F50001300A168A15D4250A12E6
:100CF0008A110A128A1502230A128A118316031313
:100D0000E9006908EE006E08E9006D08933E840072
:100D10006908831780006E080A168A1550250A1282
:100D20008A11013083160313E9006908ED070630C4
:100D300003136D02031C9D2E9E2E622E0730E900C8
:100D40006908F10093300A168A1569220A128A117D
:100D5000003A0319AC2EAD2EB72F0A128A110320C8
:100D60000A128A11F301F30A02300A168A1559236E
:100D70000A128A1190300A168A15A3210A128A11C2
:100D8000F301F30A01300A168A1559230A128A114F
:100D9000AE300A168A15A3210A128A110E30831664
:100DA0000313E900690883160317A0009F019F0A37
:100DB0000E2F1130831603172002031CE02EE12EA4
:100DC000F02E0A3083160313E9006908F30000309F
:100DD000F400F50001300A168A15D4250A128A118A
:100DE0000A128A1502230A128A1183160313E900D4
:100DF0006908EE006E08E9006D08993E84006908F4
:100E0000831780006E080A168A1550250A128A1167
:100E1000013083160313E9006908ED070630031358
:100E20006D02031C142F152FD92EED010F30E90090
:100E30006908F30002300A168A1559230A128A112A
:100E40000F3083160313E900690883160317A00007
:100E5000023083160313E9006908831603179F0005
:100E6000093083160313E9006908F3000130F40028
:100E70000030F50000300A168A15D4250A128A11AE
:100E8000762F1130831603172002031C482F492F99
:100E9000582F0A3083160313E9006908F300003065
:100EA000F400F50001300A168A15D4250A128A11B9
:100EB0000A128A1502230A128A1183160313E90003
:100EC0006908EE006E08E9006D08933E8400690829
:100ED000831780006E080A168A1550250A128A1197
:100EE000013083160313E9006908ED070630831605
:100EF00003136D02031C7D2F7E2F412FF7019930C4
:100F00000A168A15CE220A128A1107308316031395
:100F1000E9006908F70093300A168A15CE220A12F2
:100F20008A11F301F30A01300A168A1559230A12AD
:100F30008A110A128A1103200A128A116D300A16C8
:100F40008A15A3210A128A11033083160313EB00BA
:100F50008A30EA005530E900E90BAC2FEA0BAC2FE0
:100F6000EB0BAC2F0A168A159A220A128A110A1262
:100F70008A1103200A128A11F301F30A01300A16BA
:100F80008A1559230A128A119F300A168A15A3213D
:100F90000A128A110A168A159A220A128A11023036
:100FA00083160313E9006908831603179207902C30
:100FB0000A128A110028831603170A128A150620BE
:100FC0000A128A119F000A128A1507200A128A1132
:100FD000A000900191019201930194019501960165
:100FE0009701980199019A019B019C019D019E0125
:100FF00083160313ED01EE0183010A128A11132CEB
:10100C0001340A3483120313A101F31F0E280F2895
:10101C001C28F009F109F209F309F00A0319F10A85
:10102C000319F20A0319F30AA101A10AF71F1F28D9
:10103C0020282F28F409F509F609F709F40A0319F1
:10104C00F50A0319F60A0319F70A0130F8007808B3
:10105C00A1060030A5000030A4000030A300003031
:10106C00A200730872047104700403193E283F280F
:10107C008C28A001A00A4F280130F8000310F00DB5
:10108C00F10DF20DF30DF80B44280130F80078083F
:10109C00A007F31F5228532842280130F8000310F0
:1010AC00A20DA30DA40DA50DF80B552873087702FE
:1010BC00031D6A2872087602031D6A2871087502DE
:1010CC00031D6A2870087402031C6D286E287D2885
:1010DC007008F4027108031C710FF5027208031CEE
:1010EC00720FF6027308031C730FF70222140130FF
:1010FC000310F30CF20CF10CF00CFF3E031D7E28D8
:10110C000130A002031D8B288C28532821080319B9
:10111C00902891289C28A209A309A409A509A20A30
:10112C000319A30A0319A40A0319A50A2508F30035
:10113C002408F2002308F1002208F00008008316AE
:10114C0003132D0883120313A300831603132C0817
:10115C0083120313A200831603132B0883120313A9
:10116C00A100831603132A0883120313A000003076
:10117C00A7000030A6000030A5000030A4000A161D
:10118C008A1509230A128A15031CCD28CE28D928C2
:10119C003F3083160313AD008030AC000030AB0041
:1011AC000030AA00012B4430F3003130F2007230D1
:1011BC00F1001830F000831603132D08F7002C08EB
:1011CC00F6002B08F5002A08F4000A128A111020E8
:1011DC000A128A150318F328F428052922308316DD
:1011EC0003179000003091007F3083160313AD007D
:1011FC007F30AC00FF30AB00FF30AA00012B831610
:10120C0003132D08F3002C08F2002B08F1002A0818
:10121C00F000C430F7003A30F6004830F500873063
:10122C00F4000A128A1110200A128A1503181F29B9
:10123C0020293129223083160317900000309100A9
:10124C00003083160313AD000030AC000030AB004F
:10125C000030AA00012B831603132D08F3002C0871
:10126C00F2002B08F1002A08F0000030F7000030E3
:10127C00F6000030F5000030F4000A128A1110203C
:10128C000A128A15031C4B294D2901304E290030B6
:10129C0083160313AE002E08B50035080319572921
:1012AC0058296F292D08F3002C08F2002B08F100A7
:1012BC002A08F0000A168A1536210A128A157308B4
:1012CC0083160313AD007208AC007108AB007008F4
:1012DC00AA003F3083120313B600B830B500AA3011
:1012EC00B4003B30B300831603132D088312031391
:1012FC00BA00831603132C0883120313B900831648
:10130C0003132B0883120313B800831603132A0844
:10131C0083120313B7000A128A11B2200A128A151B
:10132C0083120313360883160313AD0083120313C1
:10133C00350883160313AC00831203133408831689
:10134C000313AB0083120313330883160313AA0091
:10135C002D0883120313E400831603132C08831245
:10136C000313E300831603132B0883120313E20009
:10137C00831603132A0883120313E1000A168A1139
:10138C0007200A128A1583120313640883160313A9
:10139C00B20083120313630883160313B100831284
:1013AC000313620883160313B0008312031361083E
:1013BC0083160313AF00320883120313A3008316A2
:1013CC000313310883120313A2008316031330088E
:1013DC0083120313A100831603132F088312031324
:1013EC00A0000A168A15D4240A128A158312031334
:1013FC00210883160313B4008312031320088316E9
:10140C000313B3003308F0003408F1000030F11B73
:10141C00FF30F200F30001300A168A156A260A1210
:10142C008A15730883120313E4007208E300710831
:10143C00E2007008E100831603132D0883120313D6
:10144C00E800831603132C0883120313E70083169A
:10145C0003132B0883120313E600831603132A08C5
:10146C0083120313E5000A168A15C5210A128A1580
:10147C0083120313640883160313AD008312031342
:10148C00630883160313AC008312031362088316DC
:10149C000313AB0083120313610883160313AA0012
:1014AC002D0883120313E400831603132C088312F4
:1014BC000313E300831603132B0883120313E200B8
:1014CC00831603132A0883120313E10001308316D9
:1014DC000313AE002E0883120313E5000930E60057
:1014EC000030E7000A168A1524270A128A1583127F
:1014FC000313640883160313A700831203136308F2
:10150C0083160313A60083120313620883160313B6
:10151C00A50083120313610883160313A400340877
:10152C00A9003308A8000A168A11C6200A128A15C7
:10153C00831603132708AD002608AC002508AB0062
:10154C002408AA0035080319AC2AAD2A012B2D0852
:10155C0083120313A300831603132C0883120313A3
:10156C00A200831603132B0883120313A100831606
:10157C0003132A0883120313A0007F30A7007F30C7
:10158C00A600FF30A500FF30A4000A168A15092317
:10159C000A128A15031CD32AD42ADF2A0030831698
:1015AC000313AD000030AC000030AB000030AA00DB
:1015BC00012B831603132D08F3002C08F2002B08C3
:1015CC00F1002A08F0003F30F7008030F6000030C0
:1015DC00F5000030F4000A168A111D260A128A152D
:1015EC00730883160313AD007208AC007108AB00CE
:1015FC007008AA00012B08004630F0007008F300B8
:10160C00712D0130831203138500071E0E2B0F2B37
:10161C00312B0330F2008A30F1005530F000F00B22
:10162C00152BF10B152BF20B152B1C2B8312031303
:10163C00071A212B222B1C2B0330F2008A30F100CD
:10164C005530F000F00B282BF10B282BF20B282B2C
:10165C002F2B0730772D871E342B352B572B033030
:10166C00F2008A30F1005530F000F00B3B2BF10BFF
:10167C003B2BF20B3B2B422B83120313871A472B6A
:10168C00482B422B0330F2008A30F1005530F00029
:10169C00F00B4E2BF10B4E2BF20B4E2B552B083027
:1016AC00772D071F5A2B5B2B7D2B0330F2008A30D2
:1016BC00F1005530F000F00B612BF10B612BF20BAC
:1016CC00612B682B83120313071B6D2B6E2B682B5E
:1016DC000330F2008A30F1005530F000F00B742B1F
:1016EC00F10B742BF20B742B7B2B0930772D871F8E
:1016FC00802B812BA32B0330F2008A30F100553064
:10170C00F000F00B872BF10B872BF20B872B8E2B1A
:10171C0083120313871B932B942B8E2B0330F20015
:10172C008A30F1005530F000F00B9A2BF10B9A2B0C
:10173C00F20B9A2BA12B1430772D02308500071E4B
:10174C00A82BA92BCB2B0330F2008A30F10055309B
:10175C00F000F00BAF2BF10BAF2BF20BAF2BB62B2A
:10176C0083120313071ABB2BBC2BB62B0330F200CE
:10177C008A30F1005530F000F00BC22BF10BC22B6C
:10178C00F20BC22BC92B0430772D871ECE2BCF2BFF
:10179C00F12B0330F2008A30F1005530F000F00BE1
:1017AC00D52BF10BD52BF20BD52BDC2B8312031382
:1017BC00871AE12BE22BDC2B0330F2008A30F1008C
:1017CC005530F000F00BE82BF10BE82BF20BE82B6B
:1017DC00EF2B0530772D071FF42BF52B172C03302F
:1017EC00F2008A30F1005530F000F00BFB2BF10BBE
:1017FC00FB2BF20BFB2B022C83120313071B072C66
:10180C00082C022C0330F2008A30F1005530F00025
:10181C00F00B0E2CF10B0E2CF20B0E2C152C0630A3
:10182C00772D871F1A2C1B2C3D2C0330F2008A308D
:10183C00F1005530F000F00B212CF10B212CF20BA8
:10184C00212C282C83120313871B2D2C2E2C282C97
:10185C000330F2008A30F1005530F000F00B342CDC
:10186C00F10B342CF20B342C3B2C1230772D043032
:10187C008500071E422C432C652C0330F2008A3065
:10188C00F1005530F000F00B492CF10B492CF20B08
:10189C00492C502C83120313071A552C562C502C00
:1018AC000330F2008A30F1005530F000F00B5C2C64
:1018BC00F10B5C2CF20B5C2C632C0130772D871E0A
:1018CC00682C692C8B2C0330F2008A30F1005530D7
:1018DC00F000F00B6F2CF10B6F2CF20B6F2C762CA5
:1018EC0083120313871A7B2C7C2C762C0330F2008A
:1018FC008A30F1005530F000F00B822CF10B822C69
:10190C00F20B822C892C0230772D071F8E2C8F2CFA
:10191C00B12C0330F2008A30F1005530F000F00B9E
:10192C00952CF10B952CF20B952C9C2C83120313FC
:10193C00071BA12CA22C9C2C0330F2008A30F10046
:10194C005530F000F00BA82CF10BA82CF20BA82CA6
:10195C00AF2C0330772D871FB42CB52CD72C03302C
:10196C00F2008A30F1005530F000F00BBB2CF10B7B
:10197C00BB2CF20BBB2CC22C83120313871BC72C62
:10198C00C82CC22C0330F2008A30F1005530F00024
:10199C00F00BCE2CF10BCE2CF20BCE2CD52C113017
:1019AC00772D08308500071EDC2CDD2CFF2C033036
:1019BC00F2008A30F1005530F000F00BE32CF10B03
:1019CC00E32CF20BE32CEA2C83120313071AEF2CF3
:1019DC00F02CEA2C0330F2008A30F1005530F00084
:1019EC00F00BF62CF10BF62CF20BF62CFD2C0F3029
:1019FC00772D871E022D032D252D0330F2008A3002
:101A0C00F1005530F000F00B092DF10B092DF20B04
:101A1C00092D102D83120313871A152D162D102D39
:101A2C000330F2008A30F1005530F000F00B1C2D21
:101A3C00F10B1C2DF20B1C2D232D0030772D071FC5
:101A4C00282D292D4B2D0330F2008A30F100553012
:101A5C00F000F00B2F2DF10B2F2DF20B2F2D362D1F
:101A6C0083120313071B3B2D3C2D362D0330F20044
:101A7C008A30F1005530F000F00B422DF10B422D65
:101A8C00F20B422D492D1330772D871F4E2D4F2DE4
:101A9C00712D0330F2008A30F1005530F000F00B5C
:101AAC00552DF10B552DF20B552D5C2D8312031377
:101ABC00871B612D622D5C2D0330F2008A30F10002
:101ACC005530F000F00B682DF10B682DF20B682DE2
:101ADC006F2D1030772D463073060319762D772D28
:101AEC00072B08008312031350088039D5005508C2
:101AFC00DD005008D5005507D6005608DF00CF1F73
:101B0C00882D892D8A2D5F145F0803198E2D8F2D3A
:101B1C009F2D5F0A031D932D942D9C2D0030D0001A
:101B2C000030CF000030CE000030CD00CF17D001F8
:101B3C00A72D0030D0000030CF000030CE00003098
:101B4C00CD0054088039D5005508DE005E085D06CE
:101B5C000319B12DB22DB32D5D175408D5005507BF
:101B6C00D6005608DE00D31FBC2DBD2DBE2D5E1435
:101B7C005E080319C22DC32DD32D5E0A031DC72D7C
:101B8C00C82DD02D0030D4000030D3000030D2004E
:101B9C000030D100D317D401DB2D0030D40000303D
:101BAC00D3000030D2000030D1005F085E02031871
:101BBC00E02DE12D252E5D1FE42DE52DE92D803046
:101BCC00D5005508DD065F08D5005508E0005E0815
:101BDC00D5005508DF006008D5005508DE004D081B
:101BEC00D5005508E0005108D5005508CD00600817
:101BFC00D5005508D1004E08D5005508E000520814
:101C0C00D5005508CE006008D5005508D2004F0805
:101C1C00D5005508E0005308D5005508CF006008E2
:101C2C00D5005508D3005008D5005508E0005408DD
:101C3C00D5005508D0006008D5005508D400E00147
:101C4C005E08D500D6015608D8005F085502D700AB
:101C5C00031CD8035808803AFF0080307F02031D14
:101C6C00392E1A305702031C3C2E3D2E7A2E83122D
:101C7C00031350084F044E044D04031D462E482EEA
:101C8C000130492E0030D5005508E0000030D0005E
:101C9C000030CF000030CE000030CD005E08D50003
:101CAC005508DF00822E601C5C2E5D2E662E6008AF
:101CBC00D5000310550C0138D6005608E000682EEC
:101CCC000310E00C4D1C6B2E6C2E6D2EE0170130AA
:101CDC00D500500DD00CCF0CCE0CCD0CD50B6F2EDF
:101CEC000130D5005508DF07831203135E085F022D
:101CFC00031C812E822E592E5D1B852E862ED12EF5
:101D0C005F08031D8A2E8B2E942E0030D0000030DD
:101D1C00CF000030CE000030CD00FF2F5108CD0792
:101D2C00520803110318013E03199D2ECE075308C8
:101D3C0003110318013E0319A42ECF0754080311F5
:101D4C000318013E0319AB2ED007501CAE2EAF2E3C
:101D5C00852F601CB22EB32EBC2E6008D50003104C
:101D6C00550C0138D6005608E000BE2E0310E00CCE
:101D7C004D1CC12EC22EC32EE0170130D500500DC4
:101D8C00D00CCF0CCE0CCD0CD50BC52E0130D50004
:101D9C005508DF07852F5008803AFF005408803A19
:101DAC007F02031DE32E53084F02031DE32E52083E
:101DBC004E02031DE32E51084D020318E62EE72EAA
:101DCC003F2FFF30D500FF30D600FF30D700FF305B
:101DDC00D8005108D9005208DA005308DB00540827
:101DEC00DC004D08D9024E08031C4E0FFE2EFF2EB0
:101DFC00DA024F08031C4F0F042F052FDB0250088B
:101E0C00031C500F0A2F0B2FDC025908D5075A0858
:101E1C0003185A0F122F132FD6075B0803185B0FEA
:101E2C00182F192FD7075C0803185C0AD807580815
:101E3C00D0005708CF005608CE005508CD00803092
:101E4C00D5005508DD06E009E00A6008031D2F2FB8
:101E5C00302F4D2F0130CD07003003180130CE0745
:101E6C00003003180130CF07003003180130D007C1
:101E7C004D2F5108CD025208031C520FCE025308AD
:101E8C00031C530FCF025408031C540FD0025008EC
:101E9C004F044E044D04031D542F552F812F600801
:101EAC00031D592F5A2F812F0030D0000030CF0046
:101EBC000030CE000030CD00FF2F0130D5000310D4
:101ECC00CD0DCE0DCF0DD00DD50B652FE01F6F2F87
:101EDC00702F712F4D14601C742F752F782F0314D5
:101EEC00E00D7A2F0310E00D5F0803197E2F7F2F72
:101EFC00812F0130DF02CF1F842F852F632FDE014E
:101F0C00E01F892F8A2F982F60087F3903198F2F94
:101F1C00902F932FDE01DE0A982F4D1C962F972FB2
:101F2C00982F902F5E0803199C2F9D2FD12F0130D5
:101F3C00CD07003003180130CE07003003180130F4
:101F4C00CF07003003180130D007501CAE2FAF2F35
:101F5C00D12F4D08D5004E08D6004F08D700500899
:101F6C00D8000130D900580DD80CD70CD60CD50C94
:101F7C00D90BB92F5808D0005708CF005608CE00FF
:101F8C005508CD005F0A0319CC2FCD2FD12F01306E
:101F9C00D5005508DF075F0A0319D52FD62FDB2F85
:101FAC005F08031DDA2FDB2FE92F0030D000003043
:101FBC00CF000030CE000030CD005F08031DE72FAE
:101FCC00E82FE92FDD015F1CEC2FED2FEF2FCF1742
:101FDC00F32F7F30D5005508CF055F08D5000310CF
:101FEC00550CD6005608D000DD1FFD2FFE2FFF2FFD
:041FFC00D0170800F2
:10200E00831203136408AF006308AE006208AD00CC
:10201E006108AC006A30E5006508B0000A168A1542
:10202E0005240A168A1183120313EB1F1F2820287A
:10203E004F286408F3006308F2006208F10061089B
:10204E00F0000030F7000030F6000030F5000030F0
:10205E00F4000A128A1110200A168A110318382861
:10206E0039284428BF3083120313E4008030E30084
:10207E000030E2000030E100C52800308312031367
:10208E00E4000030E3000030E2000030E100C5283B
:10209E0000306B021D3003196A02031C57285828A2
:1020AE005928C5286408A3006308A2006208A1008D
:1020BE006108A0000A168A15D4240A168A11831202
:1020CE0003132308F3002208F2002108F100200870
:1020DE00F00001300A168A156A260A168A1173084C
:1020EE0083120313E9007208E8007108E700700814
:1020FE00E6006408F3006308F2006208F10061086C
:10210E00F0006908F7006808F6006708F500660831
:10211E00F4000A128A1110200A168A110318982840
:10212E009928BB28BF3083120313D0008030CF0014
:10213E000030CE000030CD006908D4006808D3000E
:10214E006708D2006608D1000A128A1578250A1689
:10215E008A11831203135008E4004F08E3004E085F
:10216E00E2004D08E100C528831203136908E4005C
:10217E006808E3006708E2006608E10008008316BD
:10218E000313270883120313A300831603132608D1
:10219E0083120313A200831603132508831203135D
:1021AE00A10083160313240883120313A00000302A
:1021BE00A7000030A6000030A5000030A4000A16CB
:1021CE008A1509230A168A11031CEE28EF28FA280D
:1021DE00003083160313A7000030A6000030A500C0
:1021EE000030A400A9298316031327087F39831210
:1021FE000313ED00EE010310ED0DEE0D6D088316C9
:10220E000313A8070318A90A831203136E08831673
:10221E000313A907260D260D013983120313ED00B2
:10222E00EE016D0883160313A8070318A90A83127B
:10223E0003136E0883160313A907A91F272928293C
:10224E003929223083160317900000309100003098
:10225E0083160313A7000030A6000030A50000303F
:10226E00A400A9292908803AFF0081307F02031DAE
:10227E00422900302802031C452946297D29223097
:10228E00831603179000003091008316031327085E
:10229E00F3002608F2002508F1002408F0000030B3
:1022AE00F7000030F6000030F5000030F4000A129E
:1022BE008A1110200A168A110318662967297229B5
:1022CE00FF3083160313A7007F30A600FF30A50052
:1022DE00FF30A400A9297F3083160313A7007F3097
:1022EE00A600FF30A500FF30A400A9298316031312
:1022FE00290883120313EE00831603132808831292
:10230E000313ED006E0DEE0CED0C83160313270870
:10231E00831203136D0680396D0683160313A7000F
:10232E002808013983120313ED00ED0CED0C831612
:10233E0003132608831203136D067F396D06831669
:10234E000313A600080083160313E201E3014F08EE
:10235E00E1004E08E0004D08DF004C08DE004F089B
:10236E004E044D044C04031DBD29BE29FD298312C4
:10237E000313081603300A168A1581210A168A11CC
:10238E000A168A1568210A168A1100300A168A154D
:10239E0081210A168A110A168A1568210A168A11CF
:1023AE00FD290130E2070318E30A0030E30700308D
:1023BE00F3000030F2000030F1000A30F000610846
:1023CE00F7006008F6005F08F5005E08F4000A12D8
:1023DE008A1508200A168A11730883160313E10062
:1023EE007208E0007108DF007008DE008316031328
:1023FE00E11B122A6108031D112A6008031D112A10
:10240E005F08031D112A01305E02031D0E2A0318F8
:10241E00112A122AD829FF3083160313E207031854
:10242E00E30AFF30E307E31F1D2A1E2A1F2AC92ACB
:10243E006208F0006308F1000030F11BFF30F2007B
:10244E00F30001300A168A156A260A168A117308D5
:10245E0083160313D3007208D2007108D1007008DE
:10246E00D0005308BD005208BC005108BB005008F4
:10247E00BA004130B9002030B8000030B70000304B
:10248E00B6000A168A1142240A168A1183160313FD
:10249E003908D7003808D6003708D5003608D400DA
:1024AE00570883120313A3008316031356088312CF
:1024BE000313A20083160313550883120313A100FE
:1024CE0083160313540883120313A0000A168A15E9
:1024DE00D4240A168A1183120313210883160313B8
:1024EE00DB0083120313200883160313DA005A0845
:1024FE00F0005B08F1000030F11BFF30F200F3003A
:10250E004F08F7004E08F6004D08F5004C08F40091
:10251E000A128A1508200A168A11710883160313E7
:10252E00D9007008D8000A30F0000030F1005908C8
:10253E00F3005808F2000A168A15AC230A168A11FF
:10254E00710883160313DD007008DC008312031379
:10255E00081603300A168A1581210A168A110A16E0
:10256E008A1568210A168A11831603135C080A1647
:10257E008A1581210A168A110A168A1568210A16E9
:10258E008A11122A0800831603132708F30026085F
:10259E00F2002508F1002408F0000030F7000030AA
:1025AE00F6000030F5000030F4000A128A111020F7
:1025BE000A168A110318E42AE52AF62A2130831610
:1025CE000317900000309100003083160313A7000C
:1025DE000030A6000030A5000030A400412C831668
:1025EE000313270883120313A3008316031326086D
:1025FE0083120313A20083160313250883120313F9
:10260E00A10083160313240883120313A0000030C5
:10261E00A7000030A6000030A5000030A4000A1666
:10262E008A1509230A168A11031C1E2B1F2B302B09
:10263E00223083160317900000309100003083166D
:10264E000313A7000030A6000030A5000030A40040
:10265E00412CBF3083120313D0008030CF000030E6
:10266E00CE000030CD004030B6000030B500003056
:10267E00B4000030B3006E30ED006D08B00083166C
:10268E000313270883120313AF00831603132608C0
:10269E0083120313AE00831603132508831203134C
:1026AE00AD0083160313240883120313AC000A161D
:1026BE008A1505240A168A11831203132F08BA00ED
:1026CE002E08B9002D08B8002C08B7000A128A117E
:1026DE00B2200A168A11831203133608D400350865
:1026EE00D3003408D2003308D1000A128A15782597
:1026FE000A168A1183120313500883160313A700B8
:10270E00831203134F0883160313A60083120313B9
:10271E004E0883160313A500831203134D08831668
:10272E000313A400FF3083120313EE070318EF0AFE
:10273E00FF30EF0783160313270883120313E400F9
:10274E0083160313260883120313E3008316031361
:10275E00250883120313E200831603132408831241
:10276E000313E1002930ED006D08E5000830E600A6
:10277E000030E7000A168A1524270A168A118312DA
:10278E000313640883160313A7008312031363084D
:10279E0083160313A6008312031362088316031312
:1027AE00A50083120313610883160313A4002708E0
:1027BE0083120313D0008316031326088312031308
:1027CE00CF0083160313250883120313CE0083163E
:1027DE000313240883120313CD003F30B6003130AB
:1027EE00B5007230B4001830B3006E08F0006F08F8
:1027FE00F1000030F11BFF30F200F30001300A1639
:10280E008A156A260A168A11730883120313BA00F0
:10281E007208B9007108B8007008B7000A128A1160
:10282E00B2200A168A11831203133608D400350813
:10283E00D3003408D2003308D1000A128A15782545
:10284E000A168A1183120313500883160313A70066
:10285E00831203134F0883160313A6008312031368
:10286E004E0883160313A500831203134D08831617
:10287E000313A400080083160313C701390883123B
:10288E000313A30083160313380883120313A20045
:10289E0083160313370883120313A1008316031341
:1028AE00360883120313A0000030A7000030A600E4
:1028BE000030A5000030A4000A168A1509230A1656
:1028CE008A11031C6B2C6C2C982C0030F3000030FA
:1028DE00F2000030F1000030F000831603133D08C3
:1028EE00F7003C08F6003B08F5003A08F4000A121F
:1028FE008A1110200A168A11031C862C872C8D2C07
:10290E00213083160317900000309100003083169B
:10291E000313B9000030B8000030B7000030B60025
:10292E001C2E831603133D0883120313A300831674
:10293E0003133C0883120313A200831603133B08F0
:10294E0083120313A100831603133A088312031391
:10295E00A0000030A7000030A6000030A500003017
:10296E00A4000A168A1509230A168A11031CC02C04
:10297E00C12CCC2C3F3083160313B9008030B80025
:10298E000030B7000030B6001C2E83160313390832
:10299E00F3003808F2003708F1003608F000003076
:1029AE00F7000030F6000030F5000030F4000A1297
:1029BE008A1110200A168A110318E62CE72C842D92
:1029CE00831603133D0883120313A3008316031308
:1029DE003C0883120313A200831603133B088312D1
:1029EE000313A100831603133A0883120313A000E6
:1029FE000A168A15D4240A168A1183120313230881
:102A0E0083160313CB0083120313220883160313BA
:102A1E00CA0083120313210883160313C9008312FD
:102A2E000313200883160313C8004B08F3004A084B
:102A3E00F2004908F1004808F00000300A168A1525
:102A4E006A260A168A11730883120313A3007208EA
:102A5E00A2007108A1007008A000831603133D08A0
:102A6E0083120313A700831603133C088312031368
:102A7E00A600831603133B0883120313A5008316C7
:102A8E0003133A0883120313A4000A168A150923A6
:102A9E000A168A110318542D552D662D21308316D2
:102AAE000317900000309100003083160313B90015
:102ABE000030B8000030B7000030B6001C2E831670
:102ACE00031348080139BE003E08C7003908F30059
:102ADE003808F2003708F1003608F0000A168A1599
:102AEE0036210A168A11730883160313B900720869
:102AFE00B8007108B7007008B600831603133908C2
:102B0E00A7003808A6003708A5003608A4000A1644
:102B1E008A11CA220A168A11831603132708C200C5
:102B2E002608C1002508C0002408BF003D088312F6
:102B3E000313B600831603133C0883120313B50068
:102B4E00831603133B0883120313B4008316031377
:102B5E003A0883120313B300831603134208831239
:102B6E000313BA0083160313410883120313B9002B
:102B7E0083160313400883120313B800831603133E
:102B8E003F0883120313B7000A128A11B2200A16E5
:102B9E008A1183120313360883160313C600831299
:102BAE000313350883160313C50083120313340869
:102BBE0083160313C40083120313330883160313FF
:102BCE00C3004608AD004508AC004408AB004308FE
:102BDE00AA000A128A15A5200A168A118316031353
:102BEE002D08B9002C08B8002B08B7002A08B6002B
:102BFE0047080319032E042E1C2E3908F30038083B
:102C0E00F2003708F1003608F0000A168A15362150
:102C1E000A168A11730883160313B9007208B800D6
:102C2E007108B7007008B6001C2E080077088039AE
:102C3E00F800780883120313A4007708F8007807C9
:102C4E00F9007908AB00F61F2D2E2E2E2F2E2B14E9
:102C5E002B080319332E342E442E2B0A031D382E27
:102C6E00392E412E0030F7000030F6000030F5000E
:102C7E000030F400F617F7014C2E0030F70000304C
:102C8E00F6000030F5000030F40073088039F800CB
:102C9E007808A4067308F8007807F9007908AC00E4
:102CAE00F21F5A2E5B2E5C2E2C142C080319602E4C
:102CBE00612E712E2C0A031D652E662E6E2E00308F
:102CCE00F3000030F2000030F1000030F000F21797
:102CDE00F301792E0030F3000030F2000030F100E5
:102CEE000030F0007308720471047004031D802E0E
:102CFE00812E9A2E0030F7000030F6000030F500DD
:102D0E000030F4008030F6047F30F7042408F80019
:102D1E007808F7047708F3007608F2007508F100DA
:102D2E007408F000FF2F2B08031D9E2E9F2EA82E39
:102D3E000030F3000030F2000030F1000030F000FF
:102D4E00FF2F2B08F800F9017908FB002C087802F8
:102D5E00FA00031CFB037A087F3EA5007B080318CC
:102D6E00013E003EA6007708A3007608A200750873
:102D7E00A1007408A0000030F7000030F60000300B
:102D8E00F5000030F4000030AA000030A900003039
:102D9E00A8000030A700AC01242F2C080319D82E50
:102DAE00D92EF92E0130F8000310A00DA10DA20DA1
:102DBE00A30DF80BDB2E0130F8000310F40DF50D0A
:102DCE00F60DF70DF80BE42EAA1FEE2EEF2EF02EB9
:102DDE0074140130F8000310A70DA80DA90DAA0D4B
:102DEE00F80BF22E73082302031D072F720822021E
:102DFE00031D072F71082102031D072F70082002E3
:102E0E00031C0A2F0B2F202F2A177008A0027108FF
:102E1E00031C710F132F142FA1027208031C720FC3
:102E2E00192F1A2FA2027308031C730F1F2F202FA6
:102E3E00A3020130F8007808AC071A302C02031CEC
:102E4E00292F2A2FD42E230822042104200403190B
:102E5E00312F322F512F2714512F0130F80003102C
:102E6E00F40DF50DF60DF70DF80B362FAA1F402FAA
:102E7E00412F422F74140130F8000310A70DA80D36
:102E8E00A90DAA0DF80B442FFF30A5070318A60AAB
:102E9E00FF30A607F61F542F552F342FAC01AA1F53
:102EAE00592F5A2F762FFF302705F800FF302805AF
:102EBE00F900FF302905FA007F302A05FB007B0858
:102ECE007A047904780403196D2F6E2F712FAC01DB
:102EDE00AC0A762F741C742F752F762F6E2F2C083C
:102EEE0003197A2F7B2FAC2F0130F4070030031813
:102EFE000130F507003003180130F60700300318D3
:102F0E000130F707771C8C2F8D2FAC2F7408F8002B
:102F1E007508F9007608FA007708FB000130FC000E
:102F2E007B0DFB0CFA0CF90CF80CFC0B972F7B08A5
:102F3E00F7007A08F6007908F5007808F4000130F9
:102F4E00A5070318A60A0030A6072608803AFF0038
:102F5E0080307F02031DB52FFF302502031CB82FD2
:102F6E00B92FC72FFF3083120313A5000030A60020
:102F7E000030F7000030F6000030F5000030F400AD
:102F8E00831203132608803AFF0080307F02031D50
:102F9E00D22F013025020318D52FD62FE32F8312FF
:102FAE000313A501A6010030F7000030F600003033
:102FBE00F5000030F400A401831203132508F80075
:102FCE007808AB002B1CEC2FED2FEF2FF617F32FFD
:102FDE007F30F8007808F6052B08F8000310780CFF
:102FEE00F9007908F7002408F8007808F704912E04
:102FFE00080018308A000408840A8207003400345E
:10300E00003480343F341834723431343F34F03469
:10301E00FD3475343E344734583463343D345834BB
:10302E0095341D343C348234C434AE343A34A8342E
:10303E00783421343934EF34933480343734A03437
:10304E009234A7343534463456341534343400347F
:10305E00003400340034C434FF347F343F348034C1
:10306E00EF34FF34BE349034E134A9343E34EC34C2
:10307E0082347634BE348234AD342B343E340E3446
:10308E003C34C334BD348734D13413343D344134ED
:10309E007834D334BB34503472346534733473346F
:1030AE0020342B34203474346F3420346334683439
:1030BE0061346E3467346534203479346F3475344A
:1030CE0072342034703461347334733477346F3423
:1030DE00723464340034503461347334733477345E
:1030EE006F347234643420346334683461346E3433
:1030FE006734653464342E34003459346F34753487
:10310E002034633461346E34203465346E34743458
:10311E00653472342E342E342E34003444344F340D
:10312E0042345B34643464342F346D346D342F3454
:10313E00793479345D343A340034573472346F3420
:10314E006E346734203450346134733473347734CE
:10315E006F347234643400344E3465347734203432
:10316E00503461347334733477346F34723464345E
:10317E003A34003446346F34723467346F347434F6
:10318E00203450346134733473343F340034573444
:10319E0065346C3463346F346D34653400342034EC
:0631AE0000342A34003455
:10326C00730872047104700403193D293E29402926
:10327C008030F3060800F200831203130812720860
:10328C000A168A1581210A168A150A168A156821CA
:10329C000A168A150800F000831603170C18572914
:1032AC00582952298C185B295C29522970088312E1
:1032BC0003178D00831603178C130C14831203173A
:1032CC000C0808008312031388162130F1007630A5
:1032DC00F000F00B6F29F10B6F2900008312031320
:1032EC0088122130F1007630F000F00B7B29F10BC5
:1032FC007B2900000800F000701C852986298A298A
:10330C008312031308148D29831203130810F01C65
:10331C00902991299329881494298810701D972934
:10332C0098299A2908159B290811F01D9E299F2977
:10333C00A1298815A22988110800F800F701B729DE
:10334C007708780784000A168A1500200A168A1551
:10335C000A168A153C220A168A150130F6007608E0
:10336C00F7077708780784000A168A1500200A16D2
:10337C008A15003A031DC329C429A62908008030E8
:10338C0083120313E4066808D0006708CF006608B0
:10339C00CE006508CD006408D4006308D300620831
:1033AC00D2006108D1000A128A1578250A168A15EE
:1033BC00831203135008E4004F08E3004E08E200A8
:1033CC004D08E1000800F800F401F5017008F20066
:1033DC00F3017208F6007308F700781CF629F72938
:1033EC00FD297608F4070318F50A7708F50701306C
:1033FC000310F60DF70DFF3E031DFE290310F80C0C
:10340C007808031D0A2A0B2AF3297508F1007408A1
:10341C00F0000800831603178C18152A162A102A98
:10342C007008831203178D0072088C008316031723
:10343C008C130C1503108B1B031400300318013074
:10344C00F300F4017308F5007408F6008B13553083
:10345C008D00AA308D008C147518352A372A8B17DD
:10346C00382A8B13831603170C110800F500750806
:10347C000F39F2007208F3007508F039F200720887
:10348C00F4008312031308167408F20004300310BE
:10349C00F20CFF3E031D4D2A72080A168A15812173
:1034AC000A168A150A168A1568210A168A157308CF
:1034BC000A168A1581210A168A150A168A15682198
:1034CC000A168A150800F300F4017108F20072085C
:1034DC00F50006307502031C742A752A762A902A88
:1034EC0074087307F2007208840075080A168A15AE
:1034FC0051210A168A1583170006031D862A872A6E
:10350C008B2A0130F2007208F4070130F2007208C5
:10351C00F5076F2A06307406031D952A962A982AF9
:10352C000130992A00300800831203130610831609
:10353C000313ED010A30FA007A0883160317A00072
:10354C009F019F0A0A128A1103200A168A15F30199
:10355C00F30A01300A168A1559230A168A15B23055
:10356C000A168A15A3210A168A150A30FA007A0857
:10357C00F30001300A168A1559230A168A15831688
:10358C0003171203031DCB2ACC2ACD2A9201080063
:10359C0083120313A2007708F8007808A000A10199
:1035AC00F72A2008F800F9017808F0007908F100F2
:1035BC0021082207FA007A08840083170008FB0010
:1035CC007B08F2000A168A1510220A168A15013099
:1035DC00F800780883120313A0070130F80078086C
:1035EC00A10706302102031CFC2AFD2AD72A06302B
:1035FC00F0000030F100F201F20A0A168A151022CE
:10360C000A168A1508000030831203132005A8003F
:10361C0000302105A90080302205AA007F30230547
:10362C00AB002B082A0429042804031D1E2B1F2B76
:10363C00272B0030A3000030A2000030A100003086
:10364C00A00000302405A80000302505A90080301A
:10365C002605AA007F302705AB002B082A04290475
:10366C002804031D3A2B3B2B432B0030A7000030C2
:10367C00A6000030A5000030A40027082306031D77
:10368C00512B26082206031D512B25082106031D4C
:10369C00512B240820060319542B552B572B0310A0
:1036AC00582B03140800F6007603031D5E2B5F2BCA
:1036BC00822B73087F3EF4007408F9007908F4003B
:1036CC0004300310F40CFF3E031D672B74080F39F4
:1036DC00F5007508F70079080F39F4007408F80044
:1036EC0077080A168A1541210A168A1578080A16CF
:1036FC008A1541210A168A1502307606031D872B7E
:10370C00882BAB2B7308BF3EF4007408F9007908C2
:10371C00F40004300310F40CFF3E031D902B7408CE
:10372C000F39F5007508F70079080F39F4007408A3
:10373C00F80077080A168A1541210A168A157808A6
:10374C000A168A1541210A168A150800F601F31F7C
:10375C00B02BB12BB82BF209F309F20A0319F30AB7
:10376C00F601F60AF11FBB2BBC2BC12BF009F1099A
:10377C00F00A0319F10A700871040319C62BC72B40
:10378C00F62BF501F50AD52B01300310F00DF10DD8
:10379C00FF3E031DCB2B0130F4007408F507F11F1D
:1037AC00D82BD92BCA2B71087302031DDF2B700881
:1037BC007202031CE22BE32BE92B7008F202710856
:1037CC00031CF303F30201300310F10CF00CFF3E69
:1037DC00031DEA2B0130F502031DF52BF62BD92B1B
:1037EC0076080319FA2BFB2B002CF209F309F20AC9
:1037FC000319F30A7308F1007208F0000800831231
:10380C0003132F08A3002E08A2002D08A1002C08DA
:10381C00A0000030A7000030A6000030A50000304A
:10382C00A4000A168A1509230A168A15031C1F2CD4
:10383C00202C312C83120313300884008313800155
:10384C00840A80010030AF000030AE000030AD00C3
:10385C000030AC00602C831203132F087F39B100A9
:10386C00B2010310B10DB20D30088400310883137E
:10387C008000840A320880002E0D2E0D0139B10013
:10388C00B2013008840031088004840A32088004B4
:10389C003008840082308007840F00080318000A67
:1038AC00FF00FF307F07800084032F0880393F38EA
:1038BC00AF00AE1308008316031388010812881298
:1038CC0000300A168A1581210A168A15C330F400B5
:1038DC00CD30F300F30B702CF40B702C0430F4008F
:1038EC003D30F300F30B782CF40B782C7D2C03304B
:1038FC000A168A1541210A168A152130F4007630F1
:10390C00F300F30B872CF40B872C000003300A1602
:10391C008A1541210A168A15F930F300F30B942C01
:10392C00972C03300A168A1541210A168A15023083
:10393C000A168A1541210A168A1502300A168A15AA
:10394C0041210A168A1508300A168A1541210A16D1
:10395C008A1500300A168A1541210A168A15083074
:10396C000A168A1541210A168A1500300A168A157C
:10397C0041210A168A150C300A168A1541210A169D
:10398C008A1500300A168A1541210A168A15063046
:10399C000A168A1541210A168A150800031083128B
:1039AC000313220D230DA4002408AA002A08031DCA
:1039BC00E02CE12CEA2C0030A3000030A2000030F7
:1039CC00A1000030A0004F2D2008A4002108A50064
:1039DC002208A6002308A7001F300310A70CA60C72
:1039EC00A50CA40CFF3E031DF32C2408A8002808EA
:1039FC00A900A217FF30A005FF30A105FF30A205DA
:103A0C000030A3059630AA02AA1F0D2D0E2D282DCD
:103A1C002A08803A973E0318142D152D162DE12CEB
:103A2C0001300310A30CA20CA10CA00CFF3E031D33
:103A3C00172D0130A4002408AA07031D262D272DBD
:103A4C00162D3F2D20302A02031C2D2D2E2D3A2D04
:103A5C00E12C0130A4000310A00DA10DA20DA30DAB
:103A6C00A40B312D0130AA022A08031D3E2D3F2D37
:103A7C002F2D29080319432D442D4F2DA009A109E1
:103A8C00A209A309A00A0319A10A0319A20A03197E
:103A9C00A30A080083160313E8000A30680203180F
:103AAC00582D592D982D6E08E400E501E601E7012B
:103ABC006708CF006608CE006508CD006408CC000E
:103ACC000A168A11AA210A168A15831603172008CA
:103ADC0083160313E4006408F300831603171F080E
:103AEC000A168A1559230A168A15083083160313E9
:103AFC00E6009D30E5000530E400E40B832DE50B7A
:103B0C00832DE60B832DD3300A168A15A3210A16B2
:103B1C008A15013083160313E40064088316031717
:103B2C00A007D32D13306E06031D9D2D9E2DD32D76
:103B3C006D08993E8400831780016D08993E8400BE
:103B4C0080010130ED020130ED02013083160317C4
:103B5C00A002200883160313E4006408F300831604
:103B6C0003171F080A168A1559230A168A15D1300D
:103B7C000A168A15A3210A168A158316031720081C
:103B8C0083160313E4006408F300831603171F085D
:103B9C000A168A1559230A168A150800F900FB0122
:103BAC007908031DDA2DDB2D202EFA01122EFB01D4
:103BBC00F02D0830F8009D30F7000530F600F60BBC
:103BCC00E52DF70BE52DF80BE52DEC2D0130F6006E
:103BDC007608FB070030F70073080A3CF600031C5C
:103BEC00F7037708803A803C031DFE2D76087B0294
:103BFC00031C012E022EDF2D01300A168A154121DD
:103C0C000A168A150C300A168A1541210A168A15CD
:103C1C000130F6007608FA077508803AF600803015
:103C2C007602031D1B2E7A08740203181E2E1F2EFB
:103C3C00DD2D692E79080319242E252E692EFA0103
:103C4C005C2EFB013A2E0830F8009D30F700053051
:103C5C00F600F60B2F2EF70B2F2EF80B2F2E362EE1
:103C6C000130F6007608FB070030F70073080A3CB9
:103C7C00F600031CF7037708803A803C031D482E9E
:103C8C0076087B02031C4B2E4C2E292E01300A1673
:103C9C008A1541210A168A1508300A168A154121FF
:103CAC000A168A150130F6007608FA077508803A6C
:103CBC00F60080307602031D652E7A087402031814
:103CCC00682E692E272E0800F800780803196F2E2D
:103CDC00702E842EF31F732E742E842E7009FA000E
:103CEC007109FB007209FC007309FD00FA0A031943
:103CFC00FB0A0319FC0A0319FD0A8C2E7308FD003C
:103D0C007208FC007108FB007008FA00730872045A
:103D1C0071047004031D932E942E9D2E0030F3001D
:103D2C000030F2000030F1000030F000232F96300C
:103D3C00F4007408F900AF2E0130F4007408F90790
:103D4C0001300310FD0CFC0CFB0CFA0CFF3E031DA8
:103D5C00A72EFE307D05031DB42EB52EA22ED12E1E
:103D6C000130F4007408F9070130FA070030031829
:103D7C000130FB07003003180130FC07003003183A
:103D8C000130FD0701300310FD0CFC0CFB0CFA0C90
:103D9C00FF3E031DC92EFF307D05031DD62ED72EE9
:103DAC00B62EE32E0130F9020130F4000310FA0DA7
:103DBC00FB0DFC0DFD0DF40BDC2EFC1BE62EE72E93
:103DCC00ED2E023079020318EC2EED2ED82E791838
:103DDC00F02EF12EF92EFF30FA05FF30FB057F3067
:103DEC00FC05FF30FD050310F90C7908F400F50112
:103DFC00F601F70118300310F40DF50DF60DF70D63
:103E0C00FF3E031D012F7408FA047508FB047608A5
:103E1C00FC047708FD0478080319152F162F1B2FA7
:103E2C00F31F192F1A2F1B2FFD177D08F3007C0889
:103E3C00F2007B08F1007A08F000080083120313EB
:103E4C006608E80001300310E80DFF3E031D292F22
:103E5C000310680D650784000A168A1500200A16DF
:103E6C008A15E9000A168A1500200A168A15EA0036
:103E7C000A168A1500200A168A15EB000A168A15EE
:103E8C0000200A168A15EC006C0883160313A30095
:103E9C00831203136B0883160313A20083120313FC
:103EAC006A0883160313A10083120313690883168F
:103EBC000313A000DF2FFF30E6070318E70AFF30DB
:103ECC00E7076608E80001300310E80DFF3E031D0C
:103EDC006A2F0310680D650784000A168A150020E6
:103EEC000A168A15E9000A168A1500200A168A1580
:103EFC00EA000A168A1500200A168A15EB000A1623
:103F0C008A1500200A168A15EC006C08D0006B0884
:103F1C00CF006A08CE006908CD008316031323086E
:103F2C0083120313B60083160313220883120313A0
:103F3C00B50083160313210883120313B4008316F0
:103F4C000313200883120313B3006408BA00630838
:103F5C00B9006208B8006108B7000A128A11B220D1
:103F6C000A168A15831203133608D4003508D300B9
:103F7C003408D2003308D1000A128A1578250A16A3
:103F8C008A1583120313500883160313A30083129C
:103F9C0003134F0883160313A200831203134E0856
:103FAC0083160313A100831203134D088316031306
:103FBC00A0008312031366086704031DE62FE72F86
:103FCC00612F83160313230883120313E400831653
:103FDC000313220883120313E3008316031321082F
:103FEC0083120313E20083160313200883120313B6
:043FFC00E1000800D8
:02400E003A3F37
:00000001FF
